S00F000043796D6F7465322E7372656372
S315100080000D480E4970B5884202D000230C4C03E08F
S315100080100C4B0D4A002106E0CA18A242F8D2C558E8
S3151000802004331560F8E7934201D202C3FBE7074B0E
S315100080309847074B984770BD802301108023011085
S31510008040EC230110F02301106C5301100D050110E3
S3151000805001BA001010B5064C2378002B07D1054B3A
S31510008060002B02D0044800E000BF0123237010BD8E
S31510008070F02301100000000080230110084B10B5FA
S31510008080002B03D00749084800E000BF07480368E3
S31510008090002B00D110BD064B002BFBD09847F9E7FB
S315100080A000000000F423011080230110802301102A
S315100080B0000000001FB501AC2000054B98470123B6
S315100080C02000A370034B9847034B98471FBDC0462B
S315100080D0D1810010F1810010E18200101FB501ACB2
S315100080E02000054B984700232000A370034B9847A8
S315100080F0034B98471FBDC046D1810010F181001077
S31510008100E1820010F7B501AC2000214B00259847FD
S315100081100123204F21001D2063702570B8471E4E85
S3151000812029001D20B047012321001F2063702570F0
S31510008130B84729001F20B04701232100092063708A
S315100081402570B84729000920B047012321001420C3
S3151000815063702570B84729001420B0470123210009
S3151000816004202370B84729000420B04701232100BA
S3151000817005202370B84729000520B04701232100A8
S3151000818008202370B84729000820B047F7BDC0461D
S315100081908D8600109D860010A988001000B5172343
S315100081A0032811D88223094ADB00D15C06F0AEFF02
S315100081B002040608012004E0022002E0042000E088
S315100081C008200143D1540023180000BD00F00040E0
S315100081D00A2302224370002302708370C2708371D7
S315100081E00132C3711233027142710381704700006C
S315100081F0E02370B581790600324A5B00002902D06F
S315100082008021490302E0D158490D4905D1503189E1
S315100082102D4D090229400C00D058F1790843210050
S315100082200143D15030780338C0B2032801D8274B08
S31510008230984707237020264C264D317862591940ED
S31510008240090182430A4362517178625961380140CB
S3151000825082430A436251F278022A12D1802162596E
S3151000826049040A436251B278615913405A061A4BAF
S315100082700B4013436351B078032811D8134B98471A
S315100082800EE0002A03D18223DB00E05408E0012A25
S3151000829006D16259104B13408022120513436351C5
S315100082A00323317960590D4A1940090702400A43E0
S315100082B062517279615913409A078B009B081343D8
S315100082C0635170BD00B0004000FF0F009D8100108B
S315100082D000F0004004040000FFFFFFF1FFFFFFCF96
S315100082E010B5074B25209847064B074A59680A4090
S315100082F0A0215A605A68C9020A435A6010BDC04686
S315100083008D8B001000F00040FFFFFDFF70B580223E
S31510008310E2250D4E6D00520274590B4B1442FBD0E0
S3151000832007280FD806F0F2FE0406080A0406080A03
S31510008330E42204E0E62202E0E82200E0EA2252000B
S315100083409B5A0B80002070BD00B0004010B50C4B3E
S315100083501A7D002A06D001221A730A4B1B68002BBD
S3151000836000D09847084B1B78002B07D00122074BEB
S315100083701A70074B1B68002B00D0984710BDC046DB
S31510008380001000400C240110341000402C10004046
S31510008390102401100222012342704273002203703E
S315100083A0037383708373C270C27303710374826024
S315100083B04261027670470000074B002805D100295C
S315100083C001D11A6006E09A6104E0002901D11A620F
S315100083D000E09A637047C0460010004080235B425D
S315100083E0002805D105490A7A1343DBB20B7204E063
S315100083F003490A781343DBB20B7070470010004034
S31510008400281000407F23002804D1054A117A0B401A
S31510008410137203E0034A11780B4013707047C0467D
S31510008420001000402810004070B504003A4B04209C
S3151000843098472378002B02D1237B002B0DD02022C6
S315100084403649CB681343CB60207E1D3A024030205C
S315100084508B691201834313438B61002322789A425E
S3151000846026D062780133002A03D0023A5342534190
S315100084709B010220A1782279490001400D00E17884
S3151000848081400A30014029430B43002A01D02022A3
S315100084901343C4200126A168214A204D11604000D3
S315100084A01372295C314329548021107A01431172C9
S315100084B0227B002A2AD0627B002A05D0012A05D009
S315100084C0022A04D1402302E0012300E00023022106
S315100084D0A27B52000A401000E27B8A400A310A4011
S315100084E002431343227C002A01D0202213436169E0
S315100084F00B4A022011620B4A08491370C42252001B
S315100085008B5C03438B540138074B984707491E2051
S31510008510074B984770BDC046758D001000B00040DF
S315100085200010004028100040DD8300104D8300101D
S31510008530FD900010024B002800D0024B19607047C6
S315100085400C2401101024011070B5002301261248C6
S315100085500568298F89B232009A400124114211D040
S3151000856092B22A8702000832D28F1A4122420CD0C8
S31510008570821DD28F1A41224207D09B00C3185B6816
S31510008580984702E00133102BE5D18021C023034A1E
S3151000859009045B00D15070BDB83E011000E100E047
S315100085A0F7B500240127174DAB6C1E8FB6B2730BAF
S315100085B05B030193019B002B01D0134B98473B00A3
S315100085C0A3401E4214D0AA6C9BB213872B008E3385
S315100085D01B8823413B420BD02B008C331B88234135
S315100085E03B4205D01234A4002D196B68984702E05F
S315100085F00134102CDED18021C023044A49045B00CB
S31510008600D150F7BDB83E011051BC010000E100E0A9
S315100086101C4A10B5130090331C688023208F5B0111
S3151000862080B2110018420DD180239B0118420BD144
S315100086308023DB01184209D1C00B1CD080230F22E6
S315100086401B0204E00C2202E00D2200E00E229BB277
S3151000865023870B00D6331B880120134103420AD00F
S315100086600B00D4331B881341034204D024329200EA
S315100086708A18536898478021C023034A89045B00EF
S31510008680D15010BDB83E011000E100E000230122D8
S31510008690037042708370C3707047000070B5172363
S315100086A0012800D8AEE0072807D807228500AA407F
S315100086B0554C636C934363642AE00F2809D807234B
S315100086C004001C40A400A3404F4DAA6C9A43AA6410
S315100086D01EE0172809D8072304001C40A400A34055
S315100086E0494DEA6C9A43EA6412E003002C3BDAB275
S315100086F0032A0DD8012682249E40444DE4002A5DAB
S315100087002B5D1207120FB2430F26B34313432B559B
S3151000871003001D3B022B24D84C783C4B1F22012C06
S3151000872005D11D7D121A94402A00A24306E00125A8
S31510008730121A95402A001C7D2243D2B21A75CA78A5
S31510008740002A5CD01F22101A80001E3A8240198817
S315100087500A43022192B21A802D4A13780B431370E2
S315100087604DE00B78002B35D10F2805D80133834007
S31510008770284A9BB293820FE001220F241F2805D8A6
S315100087800440A240244B92B29A8205E020408240D7
S31510008790224992B28A8235E04B78012B14D0002BF5
S315100087A00BD0022B2DD101228240174B596D11434C
S315100087B05965196D9143196521E001228240124CC9
S315100087C0216D0A4322651DE083400F490A6D9A43C5
S315100087D00A6514E0012B12D10F2803D883400D4AE5
S315100087E09BB20BE00F221F2804D8104083400A4A80
S315100087F09BB203E010408340084A9BB213820023C9
S3151000880000E01723180070BD00B0004000F00040D3
S3151000881000E000400000014000100140003001401F
S315100088200F2805D80A4B198801238340180009E040
S315100088300F231F2801D8074900E0074903400120EC
S31510008840984009880840431E9841C0B27047C046F8
S3151000885000000140001001400030014010B50F2803
S3151000886006D801230D4C8340A288002912D00CE0B3
S315100088701F2802D80A4C0F2301E00F23094CA288A7
S315100088801840002904D00E3B834013439BB203E0EB
S31510008890012383409A431300A38010BD00000140BA
S315100088A000100140003001400B0A70B5C9B207280C
S315100088B021D807258600B540304A546CAC430D00CC
S315100088C0B5405464546C2C435464012955D1032883
S315100088D00CD83F25C00085408340A031FF31545845
S315100088E0AC43545054582343535046E0D2246400AA
S315100088F01559032132E00F2816D8072504002C40FD
S31510008900A400A5401D4A966CAE4396640E00A64080
S315100089103400956C2C43946401292ED10231D42451
S315100089200B2819D9D6241CE0172826D807250400A9
S315100089302C40A400A540114AD66CAE43D6640E0056
S31510008940A6403400D56C2C43D464012915D10231CC
S31510008950DA24132805D8D82464001559084088400D
S3151000896003E0640008401559C0003F218140834050
S315100089708D43155111590B43135170BD00B0004072
S3151000898070B5050000240F2804D91F2383426441C3
S315100089901D3B1C1B1F4E032A29D848231000634376
S315100089A006F0B4FB020A121C0F2001222840824056
S315100089B0F05892B2828518E00F200122284082409A
S315100089C0F05892B2828506E00F200122284082409C
S315100089D0F05892B20285F3581A8608E00F20012249
S315100089E028408240F05892B20285F3589A860F2397
S315100089F01D40033363435B199B00F31859604823EA
S31510008A005C43473BAB4036190636F28F1343F38768
S31510008A1070BDC046B83E011010B5104B80220F280D
S31510008A2003D812041A60002108E01F2803D8520444
S31510008A301A60012102E0022192041A600F234822D3
S31510008A4018400E3B83404A43054CA1180831C88F85
S31510008A50125918439BB2C887138410BD00E100E079
S31510008A60B83E011010B500220F2804D91F238342E7
S31510008A7052411D3B9A1A0F23482118400E3B834042
S31510008A804A43054CA1180831C88F125998439BB216
S31510008A90C887938410BDC046B83E0110002270B539
S31510008AA015001400104B0020D1180E1804307560F4
S31510008AB04028FAD1080048324630443104800C80F0
S31510008AC0D82AF0D1094A0A4C1A600A4A0A499A6405
S31510008AD00A4A90331A602720A04709492820A04740
S31510008AE008492920A04770BDB83E0110000001407A
S31510008AF0FD90001000100140498500100030014023
S31510008B00A18500101186001001280DD0002806D06E
S31510008B10022829D10C20154A9369834315E00C20AD
S31510008B20124A9369034310E00820104B9A690243D6
S31510008B309A619A690438824380209A610C4A00032C
S31510008B405368034353600B4A01E093610A4A0B4B87
S31510008B501A600322054B98699043986198690A40F8
S31510008B6002439A61002000E01720704700B00040D1
S31510008B7000F0004080841E0080BA8C01903F0110E6
S31510008B80014B18687047C046903F011000B5172377
S31510008B90352800D9EAE0764B06F0B8FA1B1E2126D6
S31510008BA0292C2F33373B3F43474B4F53575B5F635C
S31510008BB0676B6F73777B7F8386898C8F9295989B73
S31510008BC09FA3A7ABAFB3B7BBBFC3C7CBCFD3D7DDBD
S31510008BD0E0E3DA68022104E0DA68042101E0082102
S31510008BE0DA680A43DA60C0E0DA681021F9E7DA6871
S31510008BF02021F6E7DA688021F3E78021DA68490058
S31510008C00EFE78021DA680901EBE78021DA6849018C
S31510008C10E7E78021DA688901E3E78021DA68C9018C
S31510008C20DFE78021DA680902DBE78021DA6849028A
S31510008C30D7E78021DA688902D3E78021DA68C9028A
S31510008C40CFE78021DA680903CBE78021DA68490388
S31510008C50C7E78021DA688903C3E78021DA68C90388
S31510008C60BFE78021DA680904BBE78021DA68490486
S31510008C70B7E78021DA688904B3E78021DA68C90486
S31510008C80AFE78021DA680905ABE78021DA68490584
S31510008C90A7E78021DA688905A3E78021DA68C90584
S31510008CA09FE71A69012153E01A69022150E01A69F7
S31510008CB004214DE01A6908214AE01A69102147E09B
S31510008CC01A69202144E01A69402141E01A6980217D
S31510008CD03EE080211A6949003AE080211A6989002C
S31510008CE036E080211A69C90032E080211A6909012B
S31510008CF02EE080211A6949012AE080211A6989012A
S31510008D0026E080211A69C90122E080211A69090228
S31510008D101EE080211A6949021AE080211A69890227
S31510008D2016E080211A69C90212E080211A69090326
S31510008D300EE080211A6949030AE080211A69890325
S31510008D4006E080211A69C90302E080211A69090424
S31510008D500A431A6109E01A7D012104E01A7D0221F5
S31510008D6001E004211A7D0A431A750023180000BD7C
S31510008D7000B0004000B5432800D98CE106F0D0F9C8
S31510008D80480055005D006500400177008000AD0089
S31510008D90B600890092009B00A400BF008B018B01D6
S31510008DA08B018B018B018B018B018B01FE0007015F
S31510008DB010014401D1008B018B018B018B018B01BA
S31510008DC08B01190122012B0135018B016D017601F1
S31510008DD08B018B015001540158015C018B018B01F1
S31510008DE08B018B018B018B018B018B0144004C0095
S31510008DF0590061006E00C800DA00E300EC00F500CF
S31510008E004C01600164018201A44B0220596806E0FE
S31510008E10A24B0420596802E00820A04B59688143F0
S31510008E2059605A6802435A602AE19C4B10205968CF
S31510008E30F5E79A4B20205968F1E7984B402059687E
S31510008E40EDE7964B80205968E9E7944B944A5968A8
S31510008E500A4080215A605A684900C4E08F4B914AF3
S31510008E6059680A4080215A605A688900BBE08B4BCA
S31510008E708D4A59680A4080215A605A68C900B2E082
S31510008E80864B8A4A59680A4080215A605A680901F5
S31510008E90A9E0824B864A59680A4080215A605A686E
S31510008EA04901A0E07D4B834A59680A4080215A60E7
S31510008EB05A68890197E0794B7F4A59680A408021A0
S31510008EC05A605A68C9018EE0744B7C4A59680A4048
S31510008ED080215A605A68090285E0704B784A5968B1
S31510008EE00A4080215A605A6849027CE06B4B754AE9
S31510008EF059680A4080215A605A68890273E0674BA4
S31510008F00714A59680A4080215A605A68C9026AE053
S31510008F10624B6E4A59680A4080215A605A680903A2
S31510008F2061E05E4B6A4A59680A4080215A605A6865
S31510008F30490358E0594B674A59680A4080215A60DC
S31510008F405A6889034FE0554B634A59680A40802195
S31510008F505A605A68C90346E0504B604A59680A403D
S31510008F6080215A605A6809043DE04C4B5C4A5968A6
S31510008F700A4080215A605A68490434E0474B594ADE
S31510008F8059680A4080215A605A6889042BE0434B7D
S31510008F90554A59680A4080215A605A68C90422E025
S31510008FA03E4B524A59680A4080215A605A68090550
S31510008FB019E03A4B4E4A59680A4080215A605A685D
S31510008FC0490510E0354B4B4A59680A4080215A60D2
S31510008FD05A68890507E0314B474A59680A4080218B
S31510008FE05A605A68C9050A431DE780212B4A0906AB
S31510008FF053685B005B08536053680B4353603FE054
S31510009000264B0120198902E00220244B198981433D
S3151000901019811A89024332E0204B04201989F6E798
S315100090201E4B08201989F2E71C4B10201989EEE710
S315100090301A4B20201989EAE7184B40201989E6E7D0
S31510009040164B80201989E2E7144B154A19890A40F4
S3151000905080211A811A89490010E0104B114A19898A
S315100090600A4080211A811A89890007E00B4B0E4AA3
S3151000907019890A4080211A811A89C9000A431A815E
S31510009080002009E0054B094A19890A4080211A81F6
S315100090901A890901F2E7172000BDC04600B000404A
S315100090A0FFFEFFFFFFFDFFFFFFFBFFFFFFF7FFFFC9
S315100090B0FFEFFFFFFFDFFFFFFFBFFFFFFF7FFFFF9A
S315100090C0FFFFFEFFFFFFFDFFFFFFFBFFFFFFF7FFA9
S315100090D0FFFFEFFFFFFFDFFFFFFFBFFFFFFF7FFF7A
S315100090E0FFFFFFFEFFFFFFFDFFFFFFFBFFFFFFF789
S315100090F0FFFFFFEFFFFFFFDFFFFFFFBF8023DB0454
S31510009100C01880000160704770B5214B1C68236839
S315100091101D7DEDB26A0614D51E21E21CD1771A7E8A
S3151000912023318A431A76A31CDA7F08231A4206D003
S31510009130621CD27F1A4202D0200023699847236806
S315100091401B7C0122154221D0236861691B7CDBB28E
S315100091500B7063699B186361A38B013B9BB2A3835E
S31510009160A38B9BB2002B11D1A11CC87F04210842EE
S315100091700CD0A018C07F084208D0E11CCB7721681C
S3151000918020000B7E93430B76E368984770BDC0466C
S31510009190943F0110012270B5204B5C682068057958
S315100091A0EDB2154215D0A36919789B18C9B2A361FF
S315100091B00170E38B013B9BB2E383E38B002B08D159
S315100091C021680B7A93430B7210212268137A0B4392
S315100091D0137210210D4212D0A31CDA7F01231A42FA
S315100091E00DD0E218D27F1A4209D00022E31CDA779A
S315100091F022682000137A8B43137263689847AB0674
S315100092000BD5A31CDA7F02231A4206D0621CD27F2A
S315100092101A4202D0A3682000984770BD943F0110EF
S3151000922070B5214B5C6823681D7DEDB26A0614D5B6
S315100092301E21E21CD1771A7E23318A431A76A31C8B
S31510009240DA7F08231A4206D0621CD27F1A4202D055
S3151000925020002369984723681B7C0122154221D0E0
S31510009260236861691B7CDBB20B7063699B186361B1
S31510009270A38B013B9BB2A383A38B9BB2002B11D173
S31510009280A11CC87F042108420CD0A018C07F084238
S3151000929008D0E11CCB77216820000B7E93430B7618
S315100092A0E368984770BDC046943F0110012270B51F
S315100092B0204B1C6820680579EDB2154215D0A369BC
S315100092C019789B18C9B2A3610170E38B013B9BB25D
S315100092D0E383E38B002B08D121680B7A93430B723F
S315100092E010212268137A0B43137210210D4212D0EB
S315100092F0A31CDA7F01231A420DD0E218D27F1A423C
S3151000930009D00022E31CDA7722682000137A8B43F7
S31510009310137263689847AB060BD5A31CDA7F02233A
S315100093201A4206D0621CD27F1A4202D0A3682000CD
S31510009330984770BD943F0110E12303225B0203603E
S315100093400023C2600132037143718371C3710261DC
S3151000935002330132836042618361C36103624362F7
S3151000936070470000F8B500231500421C8383436044
S315100093708360C360036143618361C3830160D377F4
S31510009380821CD377C21CD377474B0400994215D160
S31510009390464E0920B0470A20B047454E0920B0472F
S315100093A00A20B047434B44491020444E1C60B04736
S315100093B043491120B047434B012217E0424B9942D3
S315100093C017D13A4E0B20B0470C20B047384E0B2021
S315100093D0B0470C20B047374B3C491220374E5C60E3
S315100093E0B0473B491320B0470422364B1A609218F7
S315100093F01A60EA790423002A00D1023B2E00013BB1
S31510009400DBB203339B000836EF18318A01CE314B9D
S31510009410C0B29847B742F8D1012123681A7D0A4095
S3151000942001D01A7CFAE70133DA77EB7929795A1EDB
S315100094309341A8795A016B7901380B4313430328DA
S315100094400BD805F063FE02040608022204E0062289
S3151000945002E00A2200E00E22134322680132D3777B
S315100094601D4B2D68984729001C4B0600984782B261
S315100094701000002368432D09301A0133A84202D97F
S31510009480DBB2401BF9E7002021681B072831087062
S31510009490D2005B0F134322689BB29384236818761D
S315100094A023681872F8BDC04600400040758D001044
S315100094B08D8B0010943F011009910010FD90001043
S315100094C0AD92001000E100E0005000402192001023
S315100094D095910010A9880010818B001035F10010AD
S315100094E00122036818791042FCD0002019707047C9
S315100094F001220368187D1042FCD01B7C00200B70E3
S31510009500704730B504001720002A0CD0E51CEB7FFD
S31510009510D8B2052807D00523A28301220020616155
S31510009520EB7723681A7630BD9300C3185960012370
S3151000953093400130C27F1343C377704701238B409A
S3151000954010B5821CD47F2343D377012904D1026836
S315100095501F31137A0B43137210BD01228A4010B5C6
S31510009560841CE37F9343E377012904D102681F31FA
S31510009570137A8B43137210BD70B50E0014001500CC
S3151000958000280ED1611B7118002D06DD064B013D1A
S315100095901868064B1B689847F4E7E043C01720404D
S315100095A001E00120404270BDA43F01109C3F011014
S315100095B0013870B50E0002280DD80C008D18A01BAE
S315100095C0AC420AD0054B21781868054B01341B684C
S315100095D098470028F3DA0120404270BDA43F0110DD
S315100095E0A03F0110054B02001968002901D104495A
S315100095F01960186882181A607047C0461424011042
S31510009600705B011001204042704780239B010020AF
S315100096104B6070470120704700207047C0780028C3
S3151000962000D0E22070470020704700000222F8B5F3
S315100096309446040000250120DC27194B194E1A0008
S31510009640563A1188228891421CD11A78052A01D0DF
S31510009650082A01D1187015E0072A12D80100914086
S315100096600A00394203D161460A420BD109E00E497C
S315100096701D700A78002A05D00A78013AD2B20A700B
S3151000968000E01D707C33B342D9D1084B0848984787
S315100096902288A178074B084898470020F8BDC04695
S315100096A01E4001108A4201102C420110F1070110D0
S315100096B068210110D10601108C180110F7B50400AD
S315100096C000274288314B190056390988914202D138
S315100096D01978032906D0781CC7B27C33052FF2D12E
S315100096E0002300E0012325790193002D2FD1284B6B
S315100096F0284898472848294EB047019B002B20D070
S315100097007C235F43264E2278F3191A75227921009D
S315100097101A760522F0195E331A7022310B32214B5C
S31510009720363098472100F019323117221D4BF619A1
S31510009730463098473000A11D1C221A4B1A30984704
S3151000974021E0134B134898471748B0471AE07C207E
S315100097507843134B18185E300378012B01D8002577
S3151000976011E00C4F0A4E3800B04710480B4DA84771
S31510009770608813210E4B98470028F0D03800B04768
S315100097800C48A847E2252800FEBDC0461E40011021
S31510009790F107011068210110BA180110D106011045
S315100097A0C03F011077050110E318011012190110BE
S315100097B0CDCA001031190110012210B578231100FD
S315100097C0024C0088A047002010BDC046EDCA00100C
S315100097D0F0B589B005AC009000215A4B0922200043
S315100097E09847009B00251B88574901937C239C466C
S315100097F06046684342181689019F0B00BE420AD183
S3151000980016005E363778022F05D104373770127D71
S31510009810D60704D416E00135052DE9D118E0009ECF
S31510009820F678002E0ED0009B09181A311888474B6F
S315100098309847002801D1002081E04548454B9847BC
S31510009840454879E07C2255435D195E357A3A2A708F
S3151000985000217C25009A1088CAB201922A004A4338
S315100098609A181689864206D15E321678022E02D1D1
S315100098700321117003E001310529EDD10191022276
S3151000988004212272009A0198D2782170A2700122C6
S3151000989078314143595C6270022900D10232A271BB
S315100098A0E27110220199627122716C3251435A1879
S315100098B0127E0291402A2AD10D000A000F26603529
S315100098C068325D199B180393244FB84730402870AF
S315100098D0B847039B3040A8740135AB42F4D100253C
S315100098E01E4EB0470F22029B174F5B19683310406C
S315100098F00135F854082DF3D1B0477C23019A534310
S31510009900FF183B007033188010237A373B707C2287
S31510009910019B21005A430C4B6032D218009B104D0C
S3151000992018880023A847002885D000230848A3706C
S315100099306370084B98470B480B4B9847E22009B0C9
S31510009940F0BDC04689050110C03F0110F1D60010C8
S3151000995068210110F10701104B19011005080110BB
S3151000996045D5001062190110D1060110F0B500227C
S315100099707C2489B002903C490088230053435B182D
S315100099801E89D5B2864206D15E331E78022E02D1CA
S3151000999003221A7003E00132052AEED115000021C8
S315100099A0022205AB1970D9707C3169432E481A72A0
S315100099B0415C013A9A705A70022900D102329A71AA
S315100099C0DA7110225A711A717C236B430193019A32
S315100099D0254B9B181B7E402B2BD11400224B603439
S315100099E01C1913000F26204A6833D31803931F4FF0
S315100099F0B84730402070B847039B3040A0740134FC
S31510009A009C42F4D10024194EB0470F22019B164FE9
S31510009A101B19683310400134F854082CF3D1B047A1
S31510009A207C236B43FF183B007033188010237A3762
S31510009A303B707C2255432A000B4B60329A18029BCE
S31510009A4005AC188821000023094DA847002809D025
S31510009A5000230848A3706370074B98470748084BC4
S31510009A609847E22009B0F0BDC03F0110050801106B
S31510009A7045D5001068210110F10701108D1901104C
S31510009A80D1060110F0B589B006AD02900622404904
S31510009A90404E05AC2800B047042202992000B0477A
S31510009AA0E3780093002B05D0802362885B009A42EE
S31510009AB03AD13DE0384F394E3800B047384B394827
S31510009AC09847009B0396364E0193019B062BEBD0CD
S31510009AD0354B1E209847C3B2002B17D1039B380075
S31510009AE098473248B047039B380098473048B047EC
S31510009AF0029B132118882F4B9847E224002843D045
S31510009B003800039B98472C48B0473DE01A00303A7E
S31510009B10092ADAD8019AAB54FF231840274B9847E5
S31510009B20019B01330193D0E7009B002B03D021E06A
S31510009B30009B002B04D11848184B9847204803E087
S31510009B401548164B98471F48154B98470026A85D91
S31510009B501A4B01369847062EF9D1029BA178188820
S31510009B602A00194B984700280DD00B480B4B9847E5
S31510009B70164806E0A378012B05D10748074B9847EE
S31510009B801348074B98470024200009B0F0BDC04683
S31510009B904C1801107705011068210110F10701100A
S31510009BA0D1060110B219011019A80010DA19011006
S31510009BB0E6190110CDCA0010311901100507011060
S31510009BC0F81901100B1A011075D60010421A01105F
S31510009BD0581A0110F7B50023050001887C20274C80
S31510009BE0DAB2019202005A431619009232898A4259
S31510009BF00DD132005E321778012F08D90623137063
S31510009C00330070331A886B889A420ED104E0013300
S31510009C10052BE5D1019308E0009B281DE118723150
S31510009C200822174B9847071E15D0164E164D3000B2
S31510009C30A847164C1648A0473000A8471548A04715
S31510009C407C23019A052153430C4AD3181889124BC9
S31510009C509847E22010E0009B317D60331B1928885D
S31510009C6001220E4CA047002806D0074B05489847FE
S31510009C700B48064B98473800FEBDC046C03F011042
S31510009C805905011068210110F1070110D1060110C4
S31510009C90721A0110A71A0110CDCA001069D7001048
S31510009CA0FF1A011010B50078002806D0034B04489F
S31510009CB098470448044B9847E22010BDF10701105D
S31510009CC0682101101F1B0110D106011010B50400E8
S31510009CD0C078002808D0054B05489847A2782188F7
S31510009CE00448054B9847E22010BDC046F107011005
S31510009CF068210110301B0110D1060110F7B50500BF
S31510009D00002601881F4B1A00563A12888A4202D141
S31510009D101A78062A06D0721CD6B27C33052EF2D1DA
S31510009D20002300E00123AC780193174F002C18D1C3
S31510009D301648B847164B17489847019B002B0CD06E
S31510009D407C237343144A0821D3181A005E3211700B
S31510009D50EA781A75AA781A7611E00C48B8470F48AF
S31510009D600AE07C2373430C4A0848D31807221C7652
S31510009D705E331A70B8470A48054B9847E22420000C
S31510009D80FEBDC0461E400110F107011068210110EA
S31510009D90D1060110661B0110C03F0110881B01106F
S31510009DA0AD1B0110F8B5124C01002378132B0DD8FA
S31510009DB0292225780F4B5543E8180F4B98472378DF
S31510009DC023780133DBB2237000240FE00B4F0C4EC7
S31510009DD03800B0470B480C4DA8470C4B9847E22467
S31510009DE0002803D03800B0470948A8472000F8BD1E
S31510009DF0FC2C0110A44201107705011068210110F6
S31510009E00F1070110BF1B0110D1060110ADCA0010D9
S31510009E10F61B0110F0B55A4D837A9DB004000493D9
S31510009E20584F2800002B00D0A0E0B847607823795F
S31510009E300290A07862790190E078A1790090524E54
S31510009E405248B0472800B84721895148B0471222D6
S31510009E502100504B50489847504B0722210050483C
S31510009E6098474C4B059506970793002827D02378DB
S31510009E70022B24D14B4B5022049908A898474A48E4
S31510009E80049B1E0001001036B6B20D785F1C08AA9E
S31510009E90D554BBB20131B342F7D17C30502BF0D13F
S31510009EA021000520414B98470490002865D0069B59
S31510009EB005989847344B3E489847E2235CE03D4F5F
S31510009EC03B78042B46D800267C2575433A4B07224F
S31510009ED0ED1821002800314B9847F7B2364A002872
S31510009EE017D00136052EEFD100237C210D005D43DE
S31510009EF028005E30105CDFB200280ED15519079B82
S31510009F0012222100280098472A4A13780133DBB21F
S31510009F10137002235E352B7003E00133052BE5D158
S31510009F201F001F4D072221001C4B280098477C2339
S31510009F300100214A2800002903D17B43D7180523A5
S31510009F4002E05F430A23D719BB7407220021154B81
S31510009F50984712E0069B0598984739781748C9B272
S31510009F60B04720891321164B984706E0B847064B91
S31510009F70A17A144898470023049304981DB0F0BDA5
S31510009F8068210110F1070110D10601100E1C0110F5
S31510009F904F1C0110770501106C4201105905011074
S31510009FA0FD2C01108905011006400110F9CA001098
S31510009FB0641C01102C420110C03F0110861C0110B8
S31510009FC0CDCA0010C01C0110F7B504781F4E002C26
S31510009FD00FD1431C1E4F01937C2565432900463142
S31510009FE0711810220198B847002821D00134052C89
S31510009FF0F2D100237C2215005D4329005E31715C8D
S3151000A000002911D176191222124B134930009847A4
S3151000A010124A13780133DBB21370330002225E3317
S3151000A0201A700A23B3740EE00133052BE3D10AE04C
S3151000A0307019030002225E331A700A2310328374D9
S3151000A0400549044B98470020FEBDC046C03F01108D
S3151000A05059050110770501106C4201102C420110B0
S3151000A060002070470020704730B50500101E27D01D
S3151000A0700020062924D8134B5C5C134B8900CB585F
S3151000A08085420CD1A4001C199C4218D01900043327
S3151000A090181F00680028F7D10A60013010E0012D62
S3151000A0A00ED1A4001C19A34209D019000433181F9D
S3151000A0B000688242F7D1002301200B6000E00020E7
S3151000A0C030BDC0468C1E0110941E0110F0B5002440
S3151000A0D095B07A4B7A4D05900722210079481C607D
S3151000A0E0A847122221007848A847784A21007848C4
S3151000A0F0A847CD22774B9200210077481C70A847BD
S3151000A1008322764B9200210075481C70A847802246
S3151000A1102100D2007348A8478022734F52012100B4
S3151000A1203800A847714E1C2221003000A8476D4BFD
S3151000A1303761B3608023DB00F36080235B017361BA
S3151000A1406B4B1C605C609C60DC601C61694B1C6026
S3151000A1505C609C60DC601C61674B1C605C609C6092
S3151000A160DC601C61654B1C60654B1C60654B1C609C
S3151000A1705C609C60DC601C6106954025624B634FF9
S3151000A1801C60534B07933800069B5E387C220021D7
S3151000A19098473B00463B3C701D705D4B7C37BB427D
S3151000A1A0F1D100225B4B5C4D1A70484B280073604E
S3151000A1B0079B5A4C3360A04759485A4FB84730004E
S3151000A1C0594B9847061E08D02800A0475748B8474D
S3151000A1D02800A0475648B847FEE7564A0100564B96
S3151000A1E098470221544B554A300098470B21544842
S3151000A1F0544B9847002803D02800A0475248B84728
S3151000A200524907220631524B08A89847069B262228
S3151000A21000210AA89847059B3F4F404E002B0BD1B3
S3151000A2204C4B08A8984708AB0593002804D0380073
S3151000A230B04749483B4B98473800B0470598059BAF
S3151000A2400078059A05991B795279897903900598B2
S3151000A250344D40780AAC02900598807801900598A4
S3151000A260C07800903D48A8470F2323703C4B072227
S3151000A27063800599364B0BA898470023E37623771E
S3151000A2806377A377E3772384638480239B00A38477
S3151000A2902000344B9847002803D03800B047324886
S3151000A2A0A8470598314B9847002804D01A481B4BED
S3151000A2B098472F48A84715B0F0BDC046F82C011096
S3151000A2C089050110FD2C01106C420110E2040000FA
S3151000A2D018280110FC2C0110A44201109C420110F8
S3151000A2E0D845011018240110042D011080420110C8
S3151000A2F04442011058420110AC3F0110A042011017
S3151000A300A83F011030420110E44701101E40011011
S3151000A3108A4201102C42011068210110F107011028
S3151000A320E61C0110D1060110E5C60010FA1C01103A
S3151000A330171D0110401E011069A0001064180110AD
S3151000A340521D0110FDC500105E1D01104C180110A4
S3151000A3507705011031C60010751D01108B1D0110F7
S3151000A360983A000055C60010C21D011099C8001079
S3151000A370E61D011070B50D002C2808D8272843D2E9
S3151000A3801C2830D813281DD28400002615E0372843
S3151000A39005D836283CD22D38C0B2334B4CE03A287B
S3151000A3A054D046D33B2844D056E01B59002B01D03D
S3151000A3B0280098470436142E54D02C4B9B59002B4A
S3151000A3C0F3D1F7E700261338C4B2A400284B9B59E3
S3151000A3D0002B04D01B59002B01D0280098470436B7
S3151000A3E0142EF3D13EE000261D38C4B2A400214B32
S3151000A3F09B59002B04D01B59002B01D028009847DD
S3151000A4000436142EF3D12DE02738C0B21A4B13E0C0
S3151000A41000263638C4B2A400184B9B59002B04D022
S3151000A4201B59002B01D0280098470436142EF3D15F
S3151000A43018E03838124BC0B21B68002B12D08000BF
S3151000A440C358002B0ED0280098470BE00D4B1B6805
S3151000A450002B07D0984705E00B4D0C4C2800A04761
S3151000A4602800A04770BDC046A83F01104442011005
S3151000A47058420110AC3F0110A042011030420110A9
S3151000A480E4470110F82C011068210110F1070110A2
S3151000A490F8B50E4E07003378012B01D10C4B9847B7
S3151000A4A00C4C0D4D3A000D4B21002800984733787F
S3151000A4B00700012B01D10A4B9847002F03D12878AA
S3151000A4C02100084B98473800F8BDC046043D0110DE
S3151000A4D00DAF0010D84501109C4201108DBE001022
S3151000A4E0E5AE001075A30010F0B591B06A460C23C6
S3151000A4F0092713706B46577012490B22981C124E7F
S3151000A500B047152308AC63706B466A465F730F201D
S3151000A510FF2300250D4993730D31082268442570D9
S3151000A520B04722002B0017216846094CA047A842C5
S3151000A53005D0084B084898470848094B984700200B
S3151000A54011B0F0BD521D0110770501104C18011005
S3151000A550EDC80010F1070110682101101E1E011030
S3151000A560D106011000B589B001A8054B9847054BD7
S3151000A57001A80393044B0693044B984709B000BDFA
S3151000A5809583001020A10700906500002984001013
S3151000A59070B50D00084C01000020A04729000120CD
S3151000A5A0A047064C0020A0470120A0478022044B5C
S3151000A5B0D2011A6070BDC0463585001005840010A2
S3151000A5C000E100E070B50E00002800D10130002E29
S3151000A5D000D101360021084B084D434308001A00EC
S3151000A5E0A847074C0020A047064A002172430120C5
S3151000A5F0A8470120A04770BD20A10700B98300100D
S3151000A600DD83001090650000064B10B517209847A3
S3151000A610054B1B68002B00D098471720034B984713
S3151000A62010BDC046658A0010083D0110198A001039
S3151000A63013B501AC2000054B984700232100237069
S3151000A64063701720024B984713BDC0468D860010C5
S3151000A6509D860010084B10B51860002802D11730DF
S3151000A660064B06E01720064B02220649984717208C
S3151000A670054B984710BDC046083D0110658A00106D
S3151000A6808189001009A60010198A001070B50400FF
S3151000A6900D0029002000024B98470028F9D170BD03
S3151000A6A0F194001070B504000D0029002000024B33
S3151000A6B098470028F9D170BDE194001010B50D4AE5
S3151000A6C00D4B1178012908D11B6801311170002B2F
S3151000A6D00ED10A480A4B98470AE01B68002B07D090
S3151000A6E0084C20789847012221000448064B9847C9
S3151000A6F010BDC046103D0110143D0110E847011071
S3151000A7005B950010113D0110039500100021F8B55E
S3151000A7100800194B9847194C194B20009847E1230C
S3151000A7205B02236003230225E360013323610133B7
S3151000A730144E6361144B154A1E60154B30001A6097
S3151000A740144A154B15491A602200154BA560A561D0
S3151000A750E561256265629847124F134C3B680021EC
S3151000A7609868A0473B6800215868A0472A00300027
S3151000A7700E490F4B9847F8BD098B00100C48011075
S3151000A78039930010E8470110A43F0110A5A6001048
S3151000A790A03F01108DA600109C3F01100040004004
S3151000A7A065930010E8230110A1080110BDA6001042
S3151000A7B029950010F7B50D4C0190A047A0470C4CF9
S3151000A7C0A0470C4D0C4A0D4BA8470600FA20019BDA
S3151000A7D0800058430F00A04702000B0030003900DC
S3151000A7E0A847074B9847074B1860F7BD818B001099
S3151000A7F091FE001089F20010C7AEFE19EFD8093F7E
S3151000A8004DF200100C3D0110024B1A68501E1860D4
S3151000A8107047C0460C3D0110012370B5104C050061
S3151000A8202370104B104E1B68002B03D102213000F1
S3151000A8300E4B984728000E4B984700230D4D0122CA
S3151000A8402B70290030000C4B98472378022B03D02D
S3151000A8500A4B98470028F8D100232878237070BD3A
S3151000A860103D0110143D0110E84701103D950010F0
S3151000A870B5A70010113D01100395001009A800108E
S3151000A880024B1A68186002607047C0461C3D0110E2
S3151000A89030B50C4C2368002B12D01D6899602560CA
S3151000A8A000240949DA800A681C609880A24201D106
S3151000A8B00B6005E01168002901D00A00FAE7136061
S3151000A8C030BDC0461C3D0110183D011010B50024C6
S3151000A8D0054B1C60054B1C600548064B00190C34D3
S3151000A8E09847782CF8D110BD1C3D0110183D011069
S3151000A8F0203D011081A8001010B5064B064A1968B4
S3151000A90011605A68054B1A60054B1B68002B00D066
S3151000A910984710BD344801100CB0004010B00040EC
S3151000A920104B011070B50400134B0C3C1D68134BF3
S3151000A9301B689847002C1ED0E388052B1BD0EB070D
S3151000A94014D40F4B02201B6898470E4B1B68984770
S3151000A9500D4B03201B6898470028F9D10B4B02308A
S3151000A9601B68984701220A4B1A6004E0094B0A4AF1
S3151000A9701B681068984770BDECB10040C83D0110C7
S3151000A980C03D0110D03D0110AC3D0110B43D011089
S3151000A99020B00040A83D0110B83D011070B50E4C16
S3151000A9A00E4B20003222002198470125200000235B
S3151000A9B0022401265A008354821851789B19294380
S3151000A9C0A1435170192BF4D14378B3434370C37824
S3151000A9D0B343C37070BDC0465048011089050110BD
S3151000A9E0064A074B11680B401360064A0649136066
S3151000A9F00868064B03400B60536070470CB000406C
S3151000AA00D30FFEFF3448011010B00040C0E7FFFF1F
S3151000AA10F8B54B4B1A78002A04D01878C0B2012822
S3151000AA2000D18AE0474B98470024474B984780222D
S3151000AA30464B12041C60464B464DDA678022520480
S3151000AA40DA67454B454A2B60454B46491360464AE3
S3151000AA50464E1160464A28201168464A464F1160F4
S3151000AA60464A1168464A1160464A47491160474AA4
S3151000AA7047491160474A48493260484A1160484A76
S3151000AA80484911604849494A0A60494A494911608A
S3151000AA9049494A4A11604A4A4A4911604A4A4B4949
S3151000AAA011604B4A4B49116098472B684A49282038
S3151000AAB098472B68494927209847494B21001A681F
S3151000AAC0484B49481A60494B494A1A60494B4A4A09
S3151000AAD01A604A4B4A4A1A604A4B4B4A1A604B4B09
S3151000AAE04B4A1A604B4B4C4A1A604C4B4C4A1A60F4
S3151000AAF0A0224C4B9200984780224B4B92001A8012
S3151000AB004A4B984780231B043B6080235B043B60C1
S3151000AB10474B484A1C603368474D1A60224B474AD8
S3151000AB201B6820001A60A8470120A8470220A847E2
S3151000AB300122034B20001A7000E01870F8BDC046C1
S3151000AB40B03D01109DA90010E1A90010CC3D0110E7
S3151000AB5004E100E0044B0110D70700004048011043
S3151000AB60BD07000051BC0100084B0110184B011025
S3151000AB70BC000410A43D011000E100E0B800041070
S3151000AB80A03D01103C4801109FB901004848011032
S3151000AB90DBB901003C000410C01F04104C48011022
S3151000ABA0144B0110C41F04100C4B0110D41F0410B9
S3151000ABB044480110D81F0410E9CB0100C03D011014
S3151000ABC0B43D01108FCD0100D03D0110A3CE010080
S3151000ABD0AC3D0110CFCB0100D9AF001081AF0010F2
S3151000ABE0E4000410C83D011082480110D83D011040
S3151000ABF0E99F0100A83D0110DDDB0100BC3D0110FD
S3151000AC005BDC0100B83D0110EC050410C43D0110D9
S3151000AC10E3D50100DC3D0110200C04109C3D011011
S3151000AC20099F0100890501101C4B0110CDA80010C9
S3151000AC30104B0110F9A8001019B0001031B0001017
S3151000AC40044B1A780523012A02D1034B18600023FE
S3151000AC5018007047B03D0110CC3D011070B50D4B7A
S3151000AC6004001B68002B02D04088984760800A4D6C
S3151000AC70A2882D68E38861882088A847E2880500A5
S3151000AC80064E002A03D02100054B083198472800AC
S3151000AC90B04770BDA43D0110D83D011025A9001084
S3151000ACA07705011070B516000A021D000243A02098
S3151000ACB0094B05211C68C0002B00A047041E0AD0B2
S3151000ACC0002D05D0002E03D02A003100034B9847E3
S3151000ACD02000034B984770BDD83D01107705011031
S3151000ACE025A900100023F0B5441E89B00293E31C79
S3151000ACF01BD80D2200216C4B04A89847332304AAB5
S3151000AD001370303B53709370023313719371230A8F
S3151000AD1014725372230C240ED472012493720D21D3
S3151000AD201000624B14739847029400240194604DEE
S3151000AD30604B614A29001B6810689847011E00D0B5
S3151000AD407BE0CD232C689B00A5889D4238D02389B3
S3151000AD500393029B6789002B10D00D22524B04A837
S3151000AD609847332304AA1370303B53709370023301
S3151000AD70137193710D2110004C4B9847A023DB00E3
S3151000AD809D421DD1A0224D4D92002B88DB19934276
S3151000AD9002DD80239B002B802100494B2E883A0030
S3151000ADA0F6180C31474B300098473A00464B3100A5
S3151000ADB0039898472B880024FF182F80022335E02C
S3151000ADC0424D2C68002C32D0CD21394E8900326884
S3151000ADD093888B4206D1029B0124002B27D0002496
S3151000ADE0D02323E0364C3A4F23701B0A6370394B3D
S3151000ADF03C6010891B68984733682071000A60719F
S3151000AE00DB883868438036687389C38008303860B9
S3151000AE107289002A03D031002A4B0C319847718968
S3151000AE202B68200008319847002403230193204AF9
S3151000AE30294B10681B68984701E007230193002CE3
S3151000AE4000D074E7029B002B2BD01B4B1E68002EE4
S3151000AE5001D1236AFFDE3700204B14371B683800F8
S3151000AE60356A9847002D18D0CD212B6889009A880D
S3151000AE70AB688A420ED1184A002C05D0A360280070
S3151000AE8013689847A568EDE733622800136898475A
S3151000AE90356AE7E72C001D00E4E7114B38001B6804
S3151000AEA09847019809B0F0BD890501105DAC0010F6
S3151000AEB0983D0110C43D0110DC3D01101C4B0110E2
S3151000AEC0824801107705011091A80010CC3D0110A1
S3151000AED0D43D0110A03D01109C3D0110BC3D011058
S3151000AEE0A83D0110802010B5024B00021B68984740
S3151000AEF0082010BD3C480110802010B5024BC0013F
S3151000AF001B689847002010BD48480110802010B5D6
S3151000AF10044CC00123689847802023680002984794
S3151000AF20002010BD48480110124A1349138F108D86
S3151000AF309BB2084380B21085DB05DB0D0BD0DBB26C
S3151000AF40584203400020012B03D001305B08C0B2E9
S3151000AF50F9E7834001E0138F0B439BB21387138FDE
S3151000AF60DB05DB0DE8D18021044A81334900FF332C
S3151000AF70D1507047001001400080FFFF00E100E053
S3151000AF80124A1349138F108D9BB2084380B2108555
S3151000AF90DB05DB0D0BD0DBB2584203400020012B42
S3151000AFA003D001305B08C0B2F9E7834001E0138F8C
S3151000AFB00B439BB21387138FDB05DB0DE8D1802182
S3151000AFC0044A8133FF33D1507047C0460000014018
S3151000AFD00080FFFF00E100E010B50B4C238F5B0BE8
S3151000AFE00FD00A4B1B689847238F228F5B0B5B038E
S3151000AFF0134323878021C023054A49005B00D150A3
S3151000B00001E0044B984710BD00100140084B011099
S3151000B01000E100E029AF00100323022803D8002323
S3151000B020024A8000835018007047C046204B01101A
S3151000B030037810B50400012B08D1134B1B68002BA5
S3151000B04000D09847FF2322689A43226023681B0A80
S3151000B050DBB2012B08D10C4B5B68002B00D0984754
S3151000B06022680A4B1340236023681B0CDBB2012BAA
S3151000B07008D1054B9B68002B00D098472268044BDB
S3151000B0801340236010BDC046204B0110FF00FFFF88
S3151000B090FFFF00FF020003000221F0B555321970C0
S3151000B0A011339342FBD10F49030001228C460E4FF8
S3151000B0B00E4E12336446511E645C84547C5C01321D
S3151000B0C01C70745C5C740A4C655C1C002234257020
S3151000B0D0084C645C190033310C700133112AE9D124
S3151000B0E0F0BDC0462F210110D41E0110E41E011020
S3151000B0F04F2101103F210110F0B587B001AD2A0094
S3151000B1000A4B012752CB52C2002612CB12C20400A0
S3151000B110AB59277223601800054B98470436A08058
S3151000B1200C34142EF4D107B0F0BDC046B01E011079
S3151000B130110B0110020010B50300142401216E3208
S3151000B1401C80997016339A42FAD101000022031D11
S3151000B15014311C002C341A709A75A27522700133A2
S3151000B1601634A2759942F4D1020002232C32C37010
S3151000B17043765376D370163253760300102211336A
S3151000B1807F301A7016339842FBD110BDF0B50D0002
S3151000B190113587B0894B0700280001920091984716
S3151000B1A0874E884B30009847874B88489847884A7F
S3151000B1B0009C9446009BAB346344FF3402932300F7
S3151000B1C0002216331A601423638301232377022384
S3151000B1D02900638220007F4B11329847029B20344E
S3151000B1E011359C42EBD1774C3000A047764D7A480A
S3151000B1F0A8479222009B92009818784B98473000E7
S3151000B200A0477748A847774B00251B689868764B68
S3151000B21098470420754A009B75499B18009A521846
S3151000B220591C1D700880DD70591D08330D8093421E
S3151000B230F6D1AB22B021009B92009B18009A890090
S3151000B240511801221A701A7504338B42FAD15C48D0
S3151000B250A0475D4E6748B047B522009B92009D18E7
S3151000B2602800654B98475648A0476448B047009B4E
S3151000B270009CA933FF330393A123A4469B00634488
S3151000B280049300232600059502932300039A68333E
S3151000B29023CA23C323CA23C303CA03C39223220088
S3151000B2A002999B00CB1800998832CB1823CB23C266
S3151000B2B02300049A94331A60AB2320009B00F118E4
S3151000B2C00422444B98309847B02320009B00F11875
S3151000B2D00422404B9C3098472300059AA0331A60ED
S3151000B2E001229A80039B403420330393029B043639
S3151000B2F00C330293049B08330493059B1633059372
S3151000B300029B3C2BC1D12E4D2E4C2800A0472E4B14
S3151000B3103B4898470223009A3A4913700294013B1E
S3151000B3205A1E8A5C0098C2540133112BF8D1029B25
S3151000B33028009847244E3448B04701239C4600996C
S3151000B3403B703B1D15C915C308681860097928009C
S3151000B350197163467B700023BB61BB83009B683306
S3151000B3603B620523BB84029B98472848B0473800A8
S3151000B370274B9847029B0400280098472548B0475A
S3151000B3803B6A019A1B88280013803B6A0233DB8FC5
S3151000B39053803B6A80331B8893803B6AC0331B887B
S3151000B3A0D38080233A6A5B00D35A019A1381029B99
S3151000B3B098471948B047200007B0F0BD95B0001067
S3151000B3C068210110F1070110D1060110F41E0110B9
S3151000B3D04A020000770501101A1F0110F9B000107B
S3151000B3E0411F0110E82301103903011085020000E6
S3151000B3F0AD0200006E1F011035B10010941F011030
S3151000B400CC1F0110C41E01100420011023200110AE
S3151000B4106DCE0010412001105D200110F0B5134BC8
S3151000B42085B09847124F041E124E134D04D03800A3
S3151000B430B0472100114814E0C823DB000093104CDC
S3151000B44002900190030002000121A0470400380079
S3151000B450002C03D1B0470B48A84703E0B0472100A2
S3151000B4600948A847200005B0F0BDC046E9A4001061
S3151000B47068210110F1070110D10601108820011072
S3151000B48071C90010B1200110C120011010B5024B76
S3151000B4909847002010BDC0461DB4001010B5024BD1
S3151000B4A09847002010BDC046B9B80010F7B5094C32
S3151000B4B007001D200E0015000193A04738701F20AD
S3151000B4C0A04730700920A04728701420A047019B80
S3151000B4D01870F7BD2188001070B50E0015000A4CC3
S3151000B4E00021002800D101210420A0470021002EB0
S3151000B4F000D101210520A0470021002D00D10121F6
S3151000B5000820A04770BDC0465D880010F7B501AC95
S3151000B510124B20009847124D00210420A847002105
S3151000B5200520A84700210820A847002701250D4E11
S3151000B5302100042025706770B04721000520B04710
S3151000B54021000820B0473900074C0420A0472900E5
S3151000B5500520A04729000820A047F7BD8D860010BA
S3151000B560A98800109D8600105D880010F7B5072584
S3151000B5700026012701900A2000210E4CA0470D201D
S3151000B5800D4B9847002803D03B00AB401E43F6B244
S3151000B5903900A940019B194049B2002900D0012168
S3151000B5A00B20A04701210A20A047013DE3D230001D
S3151000B5B0FEBDC0465D8800102188001070B50500DC
S3151000B5C00E00064C00210C20A0472800044DA84769
S3151000B5D03000A84701210C20A04770BD5D880010DF
S3151000B5E06DB5001070B505000E00064C0021102038
S3151000B5F0A0472800044DA8473000A8470121102075
S3151000B600A04770BD5D8800106DB5001070B50021A3
S3151000B6100500074C0C20A04780202843054DA8475D
S3151000B6200020A847050001210C20A047280070BD66
S3151000B6305D8800106DB50010F7B504000E000C20E3
S3151000B64000210A4F0192B8478020094D2043A84790
S3151000B6503400019AA31B9A4204DD0020A8472070EB
S3151000B6600134F6E701210C20B847F7BD5D880010BC
S3151000B6706DB50010F7B50E4D04000F001020002117
S3151000B6801600A8470195C0200A4D012E00D880202B
S3151000B6902043A8473C00E31B9E4204DD0020A84738
S3151000B6A020700134F7E701211020019B9847F7BD60
S3151000B6B05D8800106DB5001010B53821044C1F20A0
S3151000B6C0A047D8212020A04700212120A04710BD47
S3151000B6D0BDB5001013B506220400694628200C4B90
S3151000B6E098476B466A465B7812781B021343238091
S3151000B6F06B466A46DB7892781B02134363806B466F
S3151000B7006A465B7912791B021343A38013BDC046A8
S3151000B71039B6001010B5C021074C1020A0470021E3
S3151000B7201120A04700211220A04738211E20A04733
S3151000B73000211320A04710BDBDB5001013B5062279
S3151000B7400400694618200C4B98476B466A465B788E
S3151000B75012781B02134323806B466A46DB78927875
S3151000B7601B02134363806B466A465B7912791B0290
S3151000B7701343A38013BDC04639B6001010B57C2103
S3151000B780074C2020A04700212120A047002122207D
S3151000B790A0470C212320A04700212420A04710BD3C
S3151000B7A0E5B5001013B506220400694628200C4B97
S3151000B7B098476B466A465B7812781B0213432380C0
S3151000B7C06B466A46DB7892781B02134363806B469E
S3151000B7D06A465B7912791B021343A38013BDC046D8
S3151000B7E075B60010F7B501AC284B20009847284DC8
S3151000B7F002210C20A84702210A20A84702210D2069
S3151000B800A84702210B20A84700211020A847022193
S3151000B8100A20A84702210D20A84702210B20A8477D
S3151000B820012500261B4F21000C202570B84721004A
S3151000B83010202570B84721000A202570B84721002E
S3151000B8400D2026706670B84721000D202670667090
S3151000B850B84721000B202570B84721001720267005
S3151000B8606570B8470C4C29000C20A04731000C20FD
S3151000B870A04729000C20A04729001020A04731001E
S3151000B8801020A04729001020A047F7BD8D86001074
S3151000B890A98800109D8600105D88001007220023DD
S3151000B8A030B504490C684D6812196B410A604B603B
S3151000B8B030BDC046E03D011010B504000021162031
S3151000B8C0034B98476288034B00201A8010BDC04670
S3151000B8D05D880010324B0110002310B51A000121AB
S3151000B8E04120034CA047034B0348984710BDC04660
S3151000B8F0A5AC0010F10701105F210110002310B54F
S3151000B9001A0001214120014CA04710BDA5AC001022
S3151000B910F0B514240D0095B0019202932200002177
S3151000B9201F4B070098471F4E2B0032001E4D21005B
S3151000B93005A8A847019B0090320021000AA8A84735
S3151000B940029B0190320021000FA8A847009DEB34FE
S3151000B9502540164E02902A0005A93800B04720232C
S3151000B9607B55019B681C23401A000AA938180393BB
S3151000B970B0472022039B0FA9ED186B1CFA54029AAC
S3151000B980023522407819B047019A009B94466344C9
S3151000B9901800029B0230C018C0B215B0F0BDC046E8
S3151000B9A089050110E31C0110150A01107705011015
S3151000B9B0F0B5142617001C008BB0320000210C4B7A
S3151000B9C005009847230CBAB2A4B23F0C0292009419
S3151000B9D031000197074A05A8074CA04705A904009E
S3151000B9E0C2B2064B28009847E0B20BB0F0BDC04675
S3151000B9F0890501106A210110150A01107705011039
S3151000BA00F0B5A74CA544002401AB1C706B465C71C5
S3151000BA106B469C716B46DC71A24B9847A24B9847BC
S3151000BA20A24B984721002000A14B9847A14B98475D
S3151000BA30A14B9847A149A248A24B9847072101203C
S3151000BA40A14B9847A14B9847A14B9847A148A24BA9
S3151000BA509847A24B9847A24D0F20A8470F20A847FA
S3151000BA60A04D0100A048A847A04B9847A04B984767
S3151000BA70A04B9847A04FA14E3800B047A048A84702
S3151000BA80022306A843709F4B04708470C47004711F
S3151000BA904471847198473800B0479B48A84703AA59
S3151000BAA015A90BA8994B984704003800002C04D010
S3151000BAB0B04721009648A84702E0B0479548A847E6
S3151000BAC0954B98470021954A0800954B9847954BFA
S3151000BAD09847954B9847954B98470022012110009F
S3151000BAE0934B9847012500240120924B40429847DA
S3151000BAF0914E924B300098479148924B98479248F6
S3151000BB00924B98476B466A466946073306320531AB
S3151000BB1001A88F4FB8476B468E4A5B890021138068
S3151000BB206B461B8906A853806B46DB7903AFDA0098
S3151000BB306B469B799B0013436A46127913436A46F8
S3151000BB40527952001343844A13801422834B984728
S3151000BB50B3887288318806A8814EB04706A982B28A
S3151000BB60804B38889847764B754A75499B8852881A
S3151000BB7009887B4E06A8B04706A982B2794B788809
S3151000BB809847714B704A70499B8852880988744E41
S3151000BB9006A8B04706A982B2724BB88898476E4B72
S3151000BBA06C4A6C491B885288098806A86C4EB047A7
S3151000BBB006A982B26B4BF88898476B4B6B491A688B
S3151000BBC05B6806A88847674B82B206A938899847EA
S3151000BBD06B461B79002B3AD0524B9847524B9847DD
S3151000BBE00A236B4419000020614EB0470528F7D090
S3151000BBF002A90120B0470528FAD022002900012009
S3151000BC004B4EB047220029000020B0476B46FA225F
S3151000BC101B89D200934205D9220001210020B0478A
S3151000BC20012504E0002122000800B04700256B46DC
S3151000BC301A89F423FF339A4204D8012229000020DE
S3151000BC40B04726E0002229001000B0474BE76B46AC
S3151000BC505E79374F22002900002E03D00120B84705
S3151000BC60012601E03000B8476B469D792200002D71
S3151000BC7004D001213000B847012502E02900300028
S3151000BC80B8476B46DC79002C05D00122290030001C
S3151000BC90B847012428E7220029003000B84723E7D7
S3151000BCA064FCFFFF0DB5001011AA0010E5AE0010E0
S3151000BCB0098B00100DA7001065A500109DB8001087
S3151000BCC0FDB8001091A50010C5A500109D8A0010A2
S3151000BCD031A60010D9B8001055A60010E5B700100F
S3151000BCE00DB60010D10601107B210110B9B6001057
S3151000BCF07DB7001015B7001068210110F10701106B
S3151000BD0092210110CDA00010AF2101108DB10010AD
S3151000BD10CC210110F12101101DB400100C220110CC
S3151000BD2069A00010B5800010DD800010058100109C
S3151000BD30D9B4001091A400102C4B0110D5B60010E8
S3151000BD40384B01103DB700103E4B0110A5B700103F
S3151000BD50ADB40010344B0110844C0110890501104C
S3151000BD6011B900103DD30010E03D0110B1B900101B
S3151000BD700D83001070B5124D2C68002C14D0266857
S3151000BD80E2602E6000250F4A238113682560A0808B
S3151000BD90E180AB4201D1146011E01A68002A01D08B
S3151000BDA0131CFAE71C600AE0C4B2002C07D1064C3B
S3151000BDB0E26001222381054BA080E1801A7070BDDC
S3151000BDC0003E0110FC3D0110E83D0110F83D011048
S3151000BDD010B5084B000900011A680818814203D0F3
S3151000BDE00A600A1C1031F9E71A600022024B1A6029
S3151000BDF010BDC046003E0110FC3D011038B51B4C6D
S3151000BE00031C2588081C211C9D4207D1A588854244
S3151000BE1004D101235B422380A26009E04C889C4236
S3151000BE200AD18C88844207D101235B424B808A60F9
S3151000BE300F4B9847012017E00E498B420ED00E4942
S3151000BE408B4207D00D4900208B420DD1101C0C4B94
S3151000BE509847EFE7111C0B4B002202E0111C002241
S3151000BE60094B98474342584138BDC046EC4D011026
S3151000BE708DD80010130E0000150E0000010E0000E4
S3151000BE80FDDB0010BDDD001095DE00100023F0B5BF
S3151000BE9087B004920370049B0390013B0D1C05931D
S3151000BEA0033302D80498AE4B9847059BAD4C033329
S3151000BEB002D90023029315E0002302932368002B76
S3151000BEC013D1029BD02B00D1DAE20498A64B9847E7
S3151000BED002900228F2D13FE00498A34B98470290B3
S3151000BEE0022839D02368002BF6D0029BD02B00D124
S3151000BEF0C6E2029B033B5A1E9341029A5B421A40CA
S3151000BF0023680292002B00D1C2E21A68DE68226012
S3151000BF10DA880192954A9C88116813601960944BCF
S3151000BF201B78012B0FD1934B924A9888D988D268E7
S3151000BF301B89914FB8471022904B8E480021984785
S3151000BF4000238B4A1370029B002B14D18C4B9C42FE
S3151000BF5009D08C4B9C4227D13A23039A13700023A5
S3151000BF6002931D1C07E0019BA34200D08AE23823EE
S3151000BF70039A13702E60039B1B783B2B01D1824BC7
S3151000BF809847039B1B783B2B03D0059B033304D99F
S3151000BF9083E2029B002B88D0F7E7029BD02B00D1BF
S3151000BFA07BE27A4B984778E2019BBB2B25D1BB2CC1
S3151000BFB023D16B461B89AB80B3787278F0781B025D
S3151000BFC0134371793279A87071482B80834206D851
S3151000BFD0704A93420BD2704A934208D009E06F48D8
S3151000BFE0834206D10B021343AB80372302E036237C
S3151000BFF000E00023039A1370BDE7694B9C4200D101
S3151000C00044E165D8674B9C4200D1D5E12FD8664BE9
S3151000C0109C4200D1E0E113D8644B9C4200D1A3E1CD
S3151000C02004D83826B44200D125E217E1604B9C4271
S3151000C03000D19FE1FE33FF339C4200D1D3E10DE1E5
S3151000C0405C4B9C4200D1A9E108D85B4B9C4200D1C5
S3151000C05096E15A4B9C4200D199E1FFE0584B9C4225
S3151000C06000D1A2E1574B9C4200D1D4E1F6E0564BE9
S3151000C0709C4200D1C8E112D8544B9C4200D1D1E168
S3151000C08004D8534B9C4200D19BE1E7E0514B9C42B4
S3151000C09000D1ADE1504B9C4200D1B0E1DEE04F4BF8
S3151000C0A09C4200D1E0E009D8083B9C4200D1D7E081
S3151000C0B04B4B39269C4200D1DDE1CFE0D1231B0149
S3151000C0C09C4200D1D6E0474B9C4200D1D8E0C5E057
S3151000C0D0454B9C4200D117E12ED8444B9C4200D1CF
S3151000C0E03DE112D8424B9C4200D1E8E004D8033B14
S3151000C0F09C4200D1D0E0B1E03E4B9C4200D1D0E052
S3151000C1003D4B9C4200D1F9E0A8E03C4B9C4200D14B
S3151000C110DBE008D83A4B9C4200D11BE1394B9C42DC
S3151000C12000D1D8E09AE0384B9C4200D1D8E0374B8A
S3151000C1309C4200D1DBE091E0354B9C4200D1F7E008
S3151000C14076D8344B9C4200D1F8E069D8324B9C42E9
S3151000C15000D1E0E0314B9C4200D1A9E07EE0C04620
S3151000C160C5D80010FC3D0110E5AC0010003E0110D2
S3151000C170F83D0110E83D011075BD0010890501104C
S3151000C180FFFF0000FEFF0000F9AE0010C7D8001038
S3151000C1901E2000001D200000030C00001F200000C0
S3151000C1A01C0D00000C0C0000020C0000020A00001E
S3151000C1B0030A0000060C0000040C0000050C000029
S3151000C1C0070C0000090C0000170C0000120C0000F0
S3151000C1D00D0C0000130C0000150C0000080D0000DB
S3151000C1E0010D0000150D00001B0E00000F0E0000C3
S3151000C1F0030E0000060E00000A0E0000150E0000C9
S3151000C200110E0000130E0000170E0000190E00008C
S3151000C210270E0000210E00001C0E00001D0E00004F
S3151000C2209F4B9C427ED09F4B9C4200D18CE015E0E8
S3151000C2309D4B9C4200D10AE108D89C4B9C4200D1F0
S3151000C240F7E09B4B9C4200D1FAE007E0994B9C42E9
S3151000C25000D103E1984B9C4200D106E100260AE189
S3151000C260301C291C954B14E0301C291C944B984704
S3151000C270042600E1301C291C924B98470126FAE04F
S3151000C280301C291C904B98470F26F4E0301C291CB3
S3151000C2908E4B9847061CEEE00198311C2A1C8C4BDD
S3151000C2A017E0311C01982A1C8A4B98471126E2E0A8
S3151000C2B0311C01982A1C884B98471226DBE0301C4B
S3151000C2C0291C864B98470626D5E0311C2A1C019856
S3151000C2D0834B9847DEE70198311C2A1C814BF8E7FF
S3151000C2E0311C01982A1C804B98470D26C3E0311C3F
S3151000C2F001982A1C7D4B98470E26BCE00198311CEC
S3151000C3002A1C7B4B984784E0311C01982A1C794BD8
S3151000C31098470B26AFE0311C01982A1C764B98479C
S3151000C3201026A8E0301C291C744B98472826A2E03A
S3151000C330301C291C724B984729269CE0301C291C5E
S3151000C340704B9847272696E0301C291C6E4B984751
S3151000C3502A2690E00198311C2A1C6C4BB9E70198EB
S3151000C360311C2A1C6A4BB4E7301C291C694B9847B0
S3151000C3702B2680E0301C291C674B98472C267AE028
S3151000C380311C01982A1C654B9847132673E0311C03
S3151000C39001982A1C624B984714266CE0311C0198B0
S3151000C3A02A1C604B9847152665E0311C01982A1CFB
S3151000C3B05D4B984716265EE00198311C2A1C5B4B94
S3151000C3C087E7311C01982A1C584B9847A988061CE8
S3151000C3D0574B288898474EE0311C01982A1C554B1C
S3151000C3E09847232647E00198311C2A1C524B70E7C8
S3151000C3F0019B301C1F0A2F80291C504B49E70198BE
S3151000C400311C2A1C4E4B64E7301C291C019A4D4BDB
S3151000C41098473B262FE0311C01982A1C4A4B984717
S3151000C420182628E0311C01982A1C484B98472026CC
S3151000C43021E0311C01982A1C454B984733261AE0F7
S3151000C440311C01982A1C434B9847302613E0311CA7
S3151000C45001982A1C404B984734260CE0311C019851
S3151000C4602A1C3E4B9847352605E0311C01982A1C9C
S3151000C4703B4B98473226039B1E70002302937AE5A6
S3151000C480D023FBE7019B029EBB2B00D0E6E6F2E72A
S3151000C490029B002B00D06EE5E0E6029807B0F0BDD7
S3151000C4A0220E0000250E0000051B0000011B0000D7
S3151000C4B0031B0000061B0000081B0000B1E600105D
S3151000C4C095E6001031E9001021EA001045EA001047
S3151000C4D069DA0010A9E2001025E3001021DD001032
S3151000C4E0BDDD001095DE0010DDE000107DE10010CE
S3151000C4F035E200105DE2001073E200103DE300101B
S3151000C5006BE3001081E30010ABE30010D9E10010DB
S3151000C51003E20010E9D4001015D50010EDEB001061
S3151000C52029EC001071EC0010B5EC0010E9EC0010CD
S3151000C530ADEB0010B5ED00103DED001041D400102C
S3151000C540ADD4001071D40010C5ED001005EE00102A
S3151000C550CDF00010D7F00010DDF00010E3F0001061
S3151000C560EFF00010F7B50E4900240B680F1C1E1CC7
S3151000C5700C4A15680192002B0ED09A8819688242CF
S3151000C58007D1002C01D0216000E00E1C1D601D1C7F
S3151000C590231C1C1C0B1CEEE7019B3E601D60F7BDA7
S3151000C5A0FC3D0110003E0110F7B5124A00901368C9
S3151000C5B011481F1C0021844604680192002B14D0D8
S3151000C5C0D888009A1D68060A96420BD1FD260640A9
S3151000C5D00C2E07D1002901D00D6000E02F1C1C6025
S3151000C5E01C1C0B1C191C2B1CE8E7019B1F606346C7
S3151000C5F01C60F7BDFC3D0110003E011030B5CF2385
S3151000C600002810D04A1E1F2A0DD8084A131CAA3318
S3151000C610198000231C1CC55CAC3401331555DCB2E3
S3151000C6208C42F7D30023181C30BDC0468A4E011029
S3151000C63010B5041CCF20002C06D0044BCE38211C7C
S3151000C6409847034B1B79237010BDC04645E5001073
S3151000C6508A4E0110F0B5067989B0CF25032E38D849
S3151000C660037811350F2B34D88023878C113D9B000E
S3151000C6709F422ED8C57F837FAD015B011D43C37ECC
S3151000C6801D43437F1B011D43037F9B001D43124B1C
S3151000C690EDB21E710379023B012B01D802230371FF
S3151000C6A0041C231C0B3361880793237900780093AD
S3151000C6B00195258C621D0295658C079B0395049741
S3151000C6C0064DA8472671051C211C03482622044B3B
S3151000C6D09847281C09B0F0BD8A4E01103DE40010A1
S3151000C6E077050110F0B587B003AF54490B22544BB0
S3151000C6F0041C381C98470522524B40261A800023EA
S3151000C700514A1360514A1370514A1370514B98474E
S3151000C710514B9847514B9847514B9847002C00D195
S3151000C72089E0A368002B00D185E02369002B00D196
S3151000C73081E02068002802D16368002B7BD1494B29
S3151000C74061689847484B9847012801D9E22672E05C
S3151000C7504648474B98470028F8D1201C454B984728
S3151000C760E068A168444B98476B460122DC1C201CEC
S3151000C77001A95242414B9847002802D12378392B00
S3151000C780F2D13F4B9847061E55D1031C01213D4A55
S3151000C79049429A1812335181902BF7D13A4C813B6A
S3151000C7A023703A4B3A4A6380002323710133581E93
S3151000C7B019010143023311700132212BF7D1E033F5
S3151000C7C0FF33A384231C002573331D70231C72337F
S3151000C7D01D70231C76331D70231CCC331D80221C28
S3151000C7E0A023D0325B001380221CCE321380231C70
S3151000C7F0D2331D80FA22231C5200D4331A80231CF4
S3151000C800D6331D70201C234BE57625776577A577E3
S3151000C810E577258465849847231C072274331A709C
S3151000C820231C0432AA331A802B1C7A5DAC330135D3
S3151000C830E2540B2DF8D1301C07B0F0BD5822011070
S3151000C84077050110F84D0110AC3E01100C3E011099
S3151000C8508023011015EE001049CB0010EDCD00100D
S3151000C860DDD4001029CE001011AA00109DD700109B
S3151000C87041AC001045D80010D1BD00108DBE00107F
S3151000C880CDE30010FA4D01108A4E0110983A0000BF
S3151000C890954E011055C6001038B5451C031CCF2007
S3151000C8A0002D18D01A78032A15D8012A02D15A78E1
S3151000C8B0002A10D01C1C291C0622074B0748984733
S3151000C8C0237807480371074B98472378002B02D12A
S3151000C8D0281C054B984738BD770501108F4E01105F
S3151000C8E08A4E011055C60010C9D80010F8B58446F6
S3151000C8F00F1C161C1C1C002802D1E220002A2BD06B
S3151000C900CF201F2F28D81F2C26D86346002B0ED0D9
S3151000C9101248134D002F04D1391C1F22114B984772
S3151000C92003E061463A1C104B984772352F70301E43
S3151000C93012D00B4D0D48002C07D1211C1F22094B7C
S3151000C940733598472C70201C06E0311C221C064BB0
S3151000C9509847002073352C70F8BDC046BE4E0110A6
S3151000C9608A4E01108905011077050110DD4E011060
S3151000C970F0B591B01F1C16AB1D8817AB1B880D9117
S3151000C9800E9318AB1B78041C0F93424B161C733373
S3151000C9901B78CF200C93012C03D10E9B002B76D144
S3151000C9A024E0042C73D88023DB019D426FD8002C21
S3151000C9B002D11F2D6BD903E09F2D01D8012C66D112
S3151000C9C0002F09D00D9BCF20013B012B5FD9012CE5
S3151000C9D002D1002D00D120352F4B9847011C002E77
S3151000C9E043D03378601E002B09D13BE08023DB0156
S3151000C9F09D424CD8002E4AD0002FE3D12BE00123C4
S3151000CA0003283AD90D20721C02E00E20321EFAD1EC
S3151000CA10204C743426780724002E00D0341C009243
S3151000CA200D9A039404921B4A01950295059772324A
S3151000CA3012780E9C0692194A07920C9A0892184A76
S3151000CA4009926422624392B20A920F9A154C0B9283
S3151000CA50154AA0471BE0002DBED10F4B9847202545
S3151000CA60011CBEE70328CDD806E0601E032803D9B3
S3151000CA70331C0D20321CCBE7002302F03DFBC6060B
S3151000CA8004020F20C2E700220C920C20BEE711B060
S3151000CA90F0BDC0468A4E011019E90010BE4E0110B5
S3151000CAA0DD4E0110F9E70010983A000010B5054B5D
S3151000CAB09847041E03D1D120034B00019847201C30
S3151000CAC010BDC04625E6001065C5001038B5041C1B
S3151000CAD0044B081C211C9847051C034B201C984727
S3151000CAE0281C38BDDDDC0010A9C5001010B5014C9E
S3151000CAF0A04710BD8DE1001010B5CF2300280AD035
S3151000CB00002908D0002A06D00C78022C03D1034B3A
S3151000CB10013198470023181C10BDC046B9E9001012
S3151000CB20CF23022801D8024B1B5C181C7047C04645
S3151000CB3063220110831EDBB203200E2B01D8014A9B
S3151000CB40D05C7047662201100022014B1A80704794
S3151000CB50043E011070B5051C00240C4B19680C4BD3
S3151000CB601E688C4210DC0C206318DA0FD318021CD6
S3151000CB705B105A43B0180288AA4201D2591EF0E738
S3151000CB80AA4202D95C1CECE7002070BD183E0110C9
S3151000CB90103E011030B50324051C01232540A54283
S3151000CBA009D0231C2419204205D1023B184202D178
S3151000CBB04B1E99418BB230210140302907D04106D6
S3151000CBC001D4810601D5074809E0C10601D50648FA
S3151000CBD005E0002A01D00422134380208001184367
S3151000CBE030BDC0460C2000000420000030B50023E4
S3151000CBF0840703D50133194200D10233040708D53F
S3151000CC00CC0601D5042400E00C2423438024A4017F
S3151000CC102343840606D50624214201D10A3400E0B6
S3151000CC2030242343C40606D50624214201D13A34C2
S3151000CC3000E0C024234380246400204200D0234314
S3151000CC40C40702D58024A40023430424204206D01E
S3151000CC50CD0600D40C242343802424012343440608
S3151000CC6001D5084C2343000607D50420C90600D475
S3151000CC700C2003438420800103439003034398B29E
S3151000CC8030BDC0460410000007B56A460B78137015
S3151000CC904B7853704B8893701B0AD3700B791371B2
S3151000CCA0CB88072153711B0A9371014B98470EBD10
S3151000CCB0A5EF0010F7B5294C1D1C23680190D3264B
S3151000CCC0002B48D01E1C0C3E2660002905D0244F90
S3151000CCD0BC4660463F68BF1807602148076884460F
S3151000CCE0BE4232D9684680880C3B188023680029DA
S3151000CCF009D0002A07D0604600689A80801A98608A
S3151000CD00184B984702E000219A8099600023226808
S3151000CD10937003332B40032B01D06B0704D50121ED
S3151000CD20226893780B43937030232B40302B01D01D
S3151000CD306B0604D50221226893780B4393700A4A36
S3151000CD40002613680133136005E0236011260029BD
S3151000CD5001D0BA1A0260301CFEBDC046103E01104A
S3151000CD60143E011077050110183E0110F8B5051C88
S3151000CD70CF20002A1CD0141C03221E1C0A400B1C98
S3151000CD80033A514251415A07D20F0A43D203094F6F
S3151000CD90281C002A03D0211C321CB84708E0111C9D
S3151000CDA0B847002804D1281C311C221C024B984776
S3151000CDB0F8BDC046B5CC0010A5EF001037B5094B2D
S3151000CDC0051C081C0C1C9847002809D08268002AEC
S3151000CDD006D08388291C0092201C0022024CA047F2
S3151000CDE03EBDC04655CB0010B5EA00100023074AD9
S3151000CDF01370074A1360074A1360074A1360074AFD
S3151000CE001360074A1360074A136070470C3E0110FF
S3151000CE101C3E0110183E0110083E0110143E011070
S3151000CE20103E0110203E01100A4B0B4A18604B08A9
S3151000CE3013600A4AC3181360094A41181360032382
S3151000CE40002203319943074B04391960064B1A60C7
S3151000CE507047C046203E01101C3E0110083E0110CE
S3151000CE60143E0110103E0110183E0110F0B5041CBE
S3151000CE7089B0CF20002C00D153E2D34B04301F6869
S3151000CE80002F00D14DE20025D04B3D801B88BE1DE2
S3151000CE90291C10227B80301CCD4B9847CD4B207916
S3151000CEA09847CD4B021C611D301C984723791A01F7
S3151000CEB023787D719B011343042213433B71A369AD
S3151000CEC0AB4217D100230393236A002B69D180E06C
S3151000CED0A2696B00995AC14B04AA00930E239B18A2
S3151000CEE00193381C01220223BD4EB047002800D002
S3151000CEF017E20135A38B9D42EADBE3E7B378B57FF2
S3151000CF0004931A1CB08A291CB64B984703232B404E
S3151000CF10033B594259410123AD0805901D400D436D
S3151000CF20B38BED031D430498AA4B9847F21C031CC0
S3151000CF300092291C0196381C059AA94DA84700286D
S3151000CF4047D1029A236A9B189A8AC0235B001A4219
S3151000CF5046D1236A029A9B189B8C002B57D101212C
S3151000CF60236A029A9B189B8A0B4200D07BE0029A96
S3151000CF70236A9B189A8A30231A4200D088E0226AC4
S3151000CF80029B94466344DB6A002B00D096E0002394
S3151000CF900293B38F029A9A4200D29FE0039B013309
S3151000CFA00393A38C039A9A4213DA039B381C9B01B2
S3151000CFB00293029A236A04219E188B4B04AA0093AB
S3151000CFC00E239B18019301220223854DA8470028A2
S3151000CFD094D0864B381C9847031E00D0A1E1B0E0D0
S3151000CFE00122B38AD9091140DB0501D50223194361
S3151000CFF07F4B04AA00930E239B1801930902381C39
S3151000D00001220223764DA8470028A2D089E1802369
S3151000D010B28A5B001A40331C283318780121002A83
S3151000D02000D00A1C734B9847331CB28C28331B78DC
S3151000D030049203221A40033A514251410A1C5B07DB
S3151000D040DB0F1A436C4BD2030093331C1043263369
S3151000D05082B20193381C04990223614DA847002817
S3151000D06000D17CE75DE1331C343318780022614B24
S3151000D0709847624B021C0093331C36330193381CBD
S3151000D0805F490223564DA847002800D16FE748E1B3
S3151000D090331C0121303318780A1C564B9847594BCC
S3151000D0A0021C0093331C32330193381C544902235B
S3151000D0B04B4DA847002800D161E732E1524B04AA34
S3151000D0C000930E239B180193381C0721012202237B
S3151000D0D0434DA847002800D159E722E11625002123
S3151000D0E0029B0A1C5D43B36B5D19AB780493181C45
S3151000D0F0404B9847EB78021C012B03D0022B05D12D
S3151000D100424B01E08023DB011A4392B20321049BB8
S3151000D1101940033948424841049B29885B07DB0FB5
S3151000D1200343DB0319432B1D143500930195381C5B
S3151000D13011232B4DA847002800D0F2E0029B0133A3
S3151000D14026E73A8862803F88A28BBF18BAB202924D
S3151000D150226A002A35D003932FE01621029B5943E9
S3151000D1606B1CD218B36B5B189A820322B36B5918D7
S3151000D1708B781A40033A574257413A1C5807C00F4A
S3151000D1800243D203888A002A00D1C8E00A882049BF
S3151000D190204FB847002800D0C3E0029B013302930A
S3151000D1A06B461A89B18F029853199BB28842D4D311
S3151000D1B01D1C039B029501330393A38C039A9A4279
S3151000D1C02ADB0020ADE0C046203E0110F84D0110CC
S3151000D1D08905011021CB0010770501107F2201105F
S3151000D1E035EF0010EDCB00108122011029EE001052
S3151000D1F07D22011095CB0010792201107B2201109F
S3151000D2000280000075220110772201100080FFFFB6
S3151000D2100C3E0110B5CC0010039B9B010493049A9D
S3151000D220236A9E18029B9D1CB38BADB235809C461B
S3151000D230002B0CD1226A049B944663449A8AC0231D
S3151000D2405B001A4225D0029F0337BDB221E00322AC
S3151000D250B37F1A40033A514251415A07D20F0A433B
S3151000D260D20308D0B169002900D12F49281C624683
S3151000D2702E4FB8470AE0281C111C2C4FB84700281F
S3151000D2804FD13088B18BB269294B98470028D1D03D
S3151000D29047E0B38C002B0BD0321C0135ADB22832CF
S3151000D2A0F5841178281C326A224FB847002838D1E5
S3151000D2B0B38ADB070FD5331C00220135ADB2F586D4
S3151000D2C007A934331B78281C0A704A70174F02328C
S3151000D2D0B847002825D13023B28A1A420FD0331C02
S3151000D2E000220135ADB2758607A930331B78281C8C
S3151000D2F00A704A700D4F0232B847002811D1F16AF0
S3151000D300002906D00135ADB2281C0B4B98470028D2
S3151000D31007D1B38F002B00D14BE700233FE7111C39
S3151000D32036E709B0F0BDC0460C3E0110B5CC001072
S3151000D330A5EF00106DCD001089CC001070B50B4B09
S3151000D340061C0C1C151C9847002808D0806800285D
S3151000D35005D0211C2A1C064B9847002004E0301CDF
S3151000D360291C221C034B984770BDC04655CB001094
S3151000D37077050110A5EF001070B50C4B061C0C1CA0
S3151000D380151C984700280BD08368002B08D083887B
S3151000D3902B8082888168064B201C9847002004E069
S3151000D3A0301C291C221C034B984770BD55CB00100E
S3151000D3B07705011031F00010F0B585B0041C01910D
S3151000D3C0002928D14388271C0093181C164B984710
S3151000D3D00837002809D08068002806D0A388E2887C
S3151000D3E0C018391C114B984715E002AB9E1D00233F
S3151000D3F00F4D33802968321C0E4B009898472B68C6
S3151000D400A088E2881818391C084B9847608832881B
S3151000D4102968094B984760882188019A074B9847D5
S3151000D420002005B0F0BDC04655CB001077050110A1
S3151000D4308423011079D300103DD3001021EB001086
S3151000D44038B50C1C074B98476588074B281C98471E
S3151000D45083782620DB0704D42088291C034B9847A1
S3151000D4603B2038BD65EA001055CB0010BDCD00102D
S3151000D47038B50D1C0A4B141C98472D88094B281CCF
S3151000D4809847220A031C084C91B2002803D08288C0
S3151000D4900023281C01E0281C0122A0473B2038BD90
S3151000D4A0A9EA001055CB001065EB001010B5141C3E
S3151000D4B0074B9847074B60889847022381782220AC
S3151000D4C0194003D1201C044B98471F2010BDC0469D
S3151000D4D071EA001055CB0010B9D300100A22014B87
S3151000D4E01A7070478023011010B502780A7083787D
S3151000D4F044781B0223434B800379C0781B020343F5
